:020000040000FA
:060000000A128A11FC2F18
:100EEC00F00101300A128A1192270A128A11FF307E
:100EFC00F4007408F00001300A128A11C7270A1294
:100F0C008A11F00101300A128A11C7270A128A11BC
:100F1C007D2F0A128A110028F300AD2F700883165A
:100F2C0003138500C62F7008831603138600C62F83
:100F3C007008831603138700C62F700883160313DB
:100F4C008800C62F7008831603138900C62F7308F8
:100F5C00F100F2017208003A0319B52FC62F71087F
:100F6C00003A0319942F013A0319992F033A0319E4
:100F7C009E2F013A0319A32F073A0319A82FC62F46
:100F8C000800F300E22F7008831203138500FB2F77
:100F9C007008831203138600FB2F7008831203134F
:100FAC008700FB2F7008831203138800FB2F700837
:100FBC00831203138900FB2F7308F100F2017208EE
:100FCC00003A0319EA2FFB2F7108003A0319C92FB5
:100FDC00013A0319CE2F033A0319D32F013A0319FF
:100FEC00D82F073A0319DD2FFB2F080083010A12B3
:040FFC008A11762FB1
:02400E00FB3F76
:00000001FF
